:100000000C9473000C9492000C9492000C94920047
:100010000C9492000C9492000C9492000C94920018
:100020000C9492000C9492000C9492000C94920008
:100030000C9492000C947A030C9492000C9492000D
:100040000C9492000C9492000C9492000C949200E8
:100050000C9492000C9492000C9492000C949200D8
:100060000C9492000C9492000C9492000C949200C8
:100070000C9492000C9492000C9492000C949200B8
:100080000C9492000C9492000C94920096029802A8
:1000900098029802980298029802830298029802A5
:1000A0009802980298029802C101C301C501C701D4
:1000B000C901CB01CD01CF01D1019802980298026C
:1000C0009802980298029802D301D50170027F022B
:1000D000000805087F079107A007A907E807E807B8
:1000E000D507E807EE0711241FBECFEFD0E4DEBF2F
:1000F000CDBF12E0A0E0B1E0ECE8F8E100E00BBF1A
:1001000002C007900D92AE30B107D9F722E0AEE001
:10011000B2E001C01D92AC33B207E1F70E9497082C
:100120000C94440C0C94000010927C0020917800F8
:1001300030917900E0913402F091350248EC50E0C2
:1001400060E070E042A353A364A375A3293542E0A5
:100150003407C0F02091150230911602233031058A
:100160003CF023E030E0309316022093150208950E
:10017000A9014F5F5F4F50931602409315022E5F07
:100180003F4F16C020393140B8F42091150230910C
:100190001602121613062CF0109216021092150277
:1001A0000895A90141505109509316024093150238
:1001B0003093220120932101089521E020937C00B7
:1001C0002091780030917900E0913402F09135026D
:1001D00048EC50E060E070E045A756A767A770AB19
:1001E000293542E03407C0F0209115023091160203
:1001F000233031053CF023E030E0309316022093A9
:1002000015020895A9014F5F5F4F50931602409366
:1002100015022E5F3F4F16C020393140B8F42091AF
:10022000150230911602121613062CF010921602C7
:10023000109215020895A9014150510950931602D8
:10024000409315023093220120932101089521E06B
:1002500030E0062E01C0220F0A94EAF7442311F081
:10026000282B02C020952823822F089521E030E01A
:10027000062E01C0220F0A94EAF7822308958FEE1A
:1002800088B90000309B29C0319B29C0329B29C00E
:10029000339B29C08FED88B90000309B26C0319B6D
:1002A00026C0329B26C0339B26C08FEB88B9000046
:1002B000309B23C0319B23C0329B23C0339B23C080
:1002C0008FE788B90000309B20C0319B20C0329B53
:1002D00020C0339920C084E4089581E3089584E325
:1002E000089587E308958AE2089582E3089585E3F7
:1002F000089588E3089580E3089583E3089586E3ED
:10030000089589E3089583E2089581E4089582E4DD
:10031000089583E4089580E008950F931F93CF9389
:10032000DF93CDB7DEB728970FB6F894DEBF0FBEC8
:10033000CDBF8C0183B10E943F010130110539F01E
:100340000230110541F00115110541F40BC088235D
:1003500009F406C107C0811105C004C101301105AF
:1003600009F000C1992787FD9095A92FB92FFC01AD
:10037000B397E232F10508F0DBC0EA5BFF4F0C9463
:10038000390981E3D6C082E3D4C083E3D2C084E3D9
:10039000D0C085E3CEC086E3CCC087E3CAC088E383
:1003A000C8C089E3C6C081E4ABC082E480931B026D
:1003B0008091020190910301019709F47AC0809124
:1003C00025028F93809124028F9301E311E01F9304
:1003D0000F93CE0107969F938F930E94740980918B
:1003E00023028F93809122028F931F930F93CE014C
:1003F00005969F938F930E947409809123028F9397
:10040000809122028F931F930F93CE0103969F93A7
:100410008F930E947409809121028F938091200212
:100420008F931F930F93CE0101969F938F930E94FA
:1004300074098AE380931A0180931D010FB6F89422
:10044000DEBF0FBECDBF80912402909125022F8187
:100450000A9734F480E3809318012093190105C0B2
:100460002093180188858093190180912202909130
:1004700023022D810A9734F480E380931B0120939B
:100480001C0105C020931B018E8180931C0180916B
:1004900020029091210229810A9734F480E380930D
:1004A0001E0120931F0105C020931E018A818093A5
:1004B0001F01109203011092020181E090E09093DD
:1004C00014028093130210922502109224021092BB
:1004D00023021092220210922102109220022BC0BD
:1004E00083E480931B0280E390E3DC0180930401AA
:1004F00090930501A0930601B09307011CC084E40A
:1005000080931B0218C08AE280931B0281E090E076
:10051000909303018093020188E0E4E3F1E0A8E115
:10052000B1E001900D928A95E1F705C083E201C028
:1005300080E380932C028091290190912A010196F9
:1005400090932A01809329018091170290911802BB
:100550000196909318028093170201E010E002C008
:1005600002E010E0C80128960FB6F894DEBF0FBE77
:10057000CDBFDF91CF911F910F91089540E050E0E2
:10058000481759075CF427E033E000002150310997
:1005900021153105D1F74F5F5F4FF2CF08951298C3
:1005A00085B9139A0000139882E090E00C94BE0283
:1005B00081E00C94CF0284E690E00E94BE0288E3C2
:1005C0000E94CF0286E00E94CF028FE00E94CF02FD
:1005D00081E00E94CF028AE090E00C94BE02129A61
:1005E00085B9139A0000139881E090E00C94BE0244
:1005F000813110F4815801C081550C94CF02FF92D3
:100600000F931F93CF93DF93C62FD72FF82EF61A91
:100610008C2F8F0D8E019881992341F00E94F80252
:100620002196F80180810E94EF02F2CFDF91CF91F5
:100630001F910F91FF900895CF93DF931092330293
:100640008091330290912D02891708F050C0C0911B
:100650003402D09135029BE0899FC00DD11D112439
:100660004D815E816F81788589819A81AB81BC8162
:10067000481759076A077B07B8F08881E985FA852A
:10068000992787FD90950995888380913302E091A1
:100690003402F09135029BE0899FE00DF11D112499
:1006A000158216821782108620913302E09134025F
:1006B000F09135028BE0289FE00DF11D112485811A
:1006C0009681A781B08540912D0150912E016091B6
:1006D0002F0170913001840F951FA61FB71F8583CE
:1006E0009683A783B0872F5F20933302A9CFDF9132
:1006F000CF9108951F920F920FB60F9211240BB64F
:100700000F922F933F934F935F936F937F938F93AA
:100710009F93AF93BF93EF93FF9380912E0290919D
:100720002F02A0913002B09131020197A109B109C5
:1007300080932E0290932F02A0933002B093310247
:10074000892B8A2B8B2B91F40E941C0380912D0105
:1007500090912E01A0912F01B091300180932E0233
:1007600090932F02A0933002B0933102FF91EF914A
:10077000BF91AF919F918F917F916F915F914F91B9
:100780003F912F910F900BBE0F900FBE0F901F90B7
:10079000189560932D0170932E0180932F019093F3
:1007A000300160932E0270932F0280933002909359
:1007B000310208958BE0809381008DE790E0909363
:1007C00089008093880082E080936F0010928500FA
:1007D0001092840080912D0190912E01A0912F0103
:1007E000B091300180932E0290932F02A09330029B
:1007F000B09331028FB780688FBF0895813081F048
:100800008091C10088618093C1008091C2008660A0
:100810008093C20083E38093C4001092C5000895C2
:100820008091C90088618093C9008091CA00866068
:100830008093CA0083E38093CC001092CD0008958A
:10084000813019F08091C00002C08091C800807290
:100850000895813019F08091C00002C08091C800D5
:1008600080740895813019F08091C00002C0809199
:10087000C80080780895813051F48091C80087FFC6
:1008800005C08091CE0080933202F7CF0895809109
:10089000C00087FF05C08091C60080933202F7CF69
:1008A0000895613039F09091C00095FFFCCF80939E
:1008B000C60008959091C80095FFFCCF8093CE00AC
:1008C000089582309105B0F58091C00085FF22C067
:1008D00080911302909114020197E1F4809102013A
:1008E00090910301892BB1F4E0910E02F0910F0277
:1008F000E85EFE4F60E080810E94510480910E020C
:1009000090910F02019690930F0280930E0280E067
:100910000E943B0480910E0290910F02099744F0CF
:1009200010920F0210920E021092140210921302F3
:1009300081E090E00895813039F08091C00087FF18
:10094000FCCF8091C60008958091C80087FFFCCF3E
:100950008091CE000895EAE7F0E08081806E808388
:100960000895883010F080917C0080937C00089579
:100970000E94D802E0911502F0911602EE0FFF1FBF
:10098000E25FFE4F6081718181E00E94FF02E09191
:100990002101F0912201EE0FFF1FE25FFE4F608107
:1009A000718181E10C94FF02EF92FF920F931F93EC
:1009B000CF93DF9300D000D0CDB7DEB70E94D8022E
:1009C0006DE371E082E00E94FF0285EC0E94CF029D
:1009D00080912A0290912B020A9734F480E30E94BE
:1009E000EF0207E110E002C006E110E080912B0267
:1009F0008F9380912A028F9381E391E09F938F934D
:100A00007E0183E0E80EF11CFF92EF920E947409D0
:100A1000B701802F0E94FF020F900F900F900F9050
:100A20000F900F9080912A0290912B020A971CF44C
:100A30000F5F1F4F02C00E5F1F4F802F0E94F802F2
:100A40008AE30E94EF0280912802909129020A977E
:100A50001CF00F5F1F4F05C080E30E94EF020E5F86
:100A60001F4F809129028F93809128028F9381E3F9
:100A700091E09F938F93CE0101967C01FF928F931B
:100A80000E947409B701802F0E94FF020F900F90FF
:100A90000F900F900F900F900F900F900F900F905E
:100AA000DF91CF911F910F91FF90EF900895EF92FA
:100AB000FF920F931F93CF93DF93CDB7DEB76E975F
:100AC0000FB6F894DEBF0FBECDBF0E94D8026DE412
:100AD00071E081E00E94FF0283EC0E94CF028091CE
:100AE0002402909125020A9734F480E30E94EF02D9
:100AF00005E110E002C004E110E0809125028F932F
:100B0000809124028F9381E391E09F938F937E01E4
:100B100085E1E80EF11CFF92EF920E947409B70183
:100B2000802F0E94FF0281E0800F0E94F8028AE37A
:100B30000E94EF020F900F900F900F900F900F9068
:100B400080912202909123020A971CF00E5F1F4FA2
:100B500005C080E30E94EF020D5F1F4F80912302CA
:100B60008F93809122028F9381E391E09F938F93E3
:100B70007E019BE0E90EF11CFF92EF920E94740946
:100B8000B701802F0E94FF020F900F900F900F90DF
:100B90000F900F9080912202909123020A971CF4EB
:100BA0000F5F1F4F02C00E5F1F4F802F0E94F80281
:100BB0008AE30E94EF0280912002909121020A971D
:100BC0001CF00F5F1F4F05C080E30E94EF020E5F15
:100BD0001F4F809121028F93809120028F9381E398
:100BE00091E09F938F93CE0101967C01FF928F93AA
:100BF0000E947409B701802F0E94FF020F900F908E
:100C00000F900F900F900F906E960FB6F894DEBF76
:100C10000FBECDBFDF91CF911F910F91FF90EF904D
:100C20000895009711F134F48F3F2FEF920709F4E4
:100C30008CC014C08130910521F082309105A9F05B
:100C40000DC08091260290912702CB9774F080917D
:100C5000200290912102CB9744F021C08130910570
:100C600021F082309105D9F008958091260290916B
:100C700027020196909327028093260280911B02FF
:100C8000823409F065C08091200290912102019682
:100C900090932102809320020E94570559C08091B1
:100CA00026029091270201969093270280932602B4
:100CB000CB97C4F0809128029091290201969093DD
:100CC000290280932802CB976CF080912A029091A0
:100CD0002B02019690932B0280932A0210922902F4
:100CE0001092280280911B02813411F40E94D404D6
:100CF00080911B02823479F580912002909121022B
:100D0000CB976CF0809122029091230201969093F0
:100D100023028093220210922102109220028091DD
:100D2000220290912302CB976CF080912402909143
:100D300025020196909325028093240210922302AB
:100D4000109222020E94570506C080E090E00895AC
:100D500081E090E0089582E090E0089561307105AF
:100D600029F4809338028093230127C062307105F3
:100D700029F480933902809324011FC063307105E8
:100D800029F4809336028093260117C064307105E0
:100D9000A1F4809337028093270188E392E00E94B8
:100DA0003F0990932B0280932A028AE392E00E94EB
:100DB0003F09909329028093280242E050E066E3C5
:100DC00072E08AE392E00E945D0963E271E086E1ED
:100DD0000C94FF026130710519F48093090119C068
:100DE0006230710519F480930A0113C063307105F4
:100DF00019F480930B010DC06430710551F4809398
:100E00000C0189E091E00E943F0990931F028093BA
:100E10001E0269E071E08BE10C94FF026130710504
:100E200019F48093040123C06230710519F4809392
:100E300005011DC06330710519F48093060117C0C8
:100E400064307105A1F48093070184E091E00E9471
:100E50003F09909312028093110220911E0230915B
:100E60001F02281B390B30931D0220931C0264E0E3
:100E700071E087E10C94FF020F931F93CF93DF93F0
:100E800000D000D01F92CDB7DEB780911D028F93A6
:100E900080911C028F9381E391E09F938F938E0149
:100EA0000F5F1F4F1F930F930E9474090E94D80277
:100EB0006DE571E081E00E94FF02B8018AE00E94C6
:100EC000FF0267E671E081E10E94FF020F900F9040
:100ED0000F900F900F900F900F900F900F900F901A
:100EE0000F90DF91CF911F910F9108958B30910555
:100EF00008F083C0FC01E859FF4F0C943909809138
:100F00001002843108F481C0109218021092170266
:100F100081E090E090931A028093190210921002DF
:100F200088C084E480931B0280912C02833209F0F4
:100F300080C010922C02109218021092170294C0D6
:100F400083E280931B0280912C02833209F08CC0D3
:100F50009DC080911B02803309F498C0813409F44C
:100F60009AC0823409F4A0C0833439F41092180274
:100F70001092170210922C029CC0843409F086C093
:100F8000109218021092170210922B0210922A024D
:100F9000109229021092280210922301109224012B
:100FA0001092260110922701A3C083E480931B02B4
:100FB00080912C02833209F07CC010922C02109296
:100FC0001802109217020E943C0789E090E00895F1
:100FD00080911B028A3209F05EC058C080912C02B9
:100FE000833209F085C010922C02109218021092E0
:100FF00017028AE280931B0249C080E090E00895C6
:101000001092100281E090E00895809110028F5FAD
:10101000809310020E94D80269E971E083E00E9487
:10102000FF0265EA71E085E10E94FF0282E090E044
:1010300008950E94D8026CE871E081E00E94FF02EE
:10104000809129010E94F80267E371E086E10E9425
:10105000FF02609117027091180280912C020E9489
:10106000AE0683E090E008950E94D8026EEA71E037
:1010700081E00E94FF026091170270911802809136
:101080002C020E94EA0684E090E008950E94B804D1
:1010900085E090E0089580911B02813411F40E9454
:1010A000D40486E090E008950E94570587E090E020
:1010B000089580911B028334C1F40E94D80266E730
:1010C00071E081E00E94FF02809129010E94F802F4
:1010D00067E871E087E10E94FF026091170270915A
:1010E000180280912C020E940E0788E090E008957B
:1010F00080911B028434C1F40E94D8026CE871E034
:1011000081E00E94FF02809129010E94F80267E3BA
:1011100071E086E10E94FF0260911702709118024F
:1011200080912C020E94AE068AE090E00895CF9351
:10113000DF93CDB7DEB7C254D1090FB6F894DEBF46
:101140000FBECDBF8CE081B983EF82B98FEF84B938
:1011500015B880EF87B98FE088B90E94AB040E9470
:10116000DB0280E00E94FE0380E00E943B0486E0F8
:1011700080932D02CE010196909335028093340224
:10118000198284EF91E0A0E0B0E08A839B83AC8376
:10119000BD838E839F83A887B9878DE891E09B8765
:1011A0008A871C8681E090E0A0E0B0E08D879E8772
:1011B000AF87B88B898B9A8BAB8BBC8B86E797E01C
:1011C0009E8B8D8B1F8A88EE93E0A0E0B0E0888F25
:1011D000998FAA8FBB8F8C8F9D8FAE8FBF8F81E130
:1011E00096E099A388A31AA288EC90E0A0E0B0E072
:1011F0008BA39CA3ADA3BEA38FA398A7A9A7BAA7AF
:1012000024E930E03CA72BA71DA68EA79FA7A8AB7B
:10121000B9AB8AAB9BABACABBDAB8DED90E09FABFC
:101220008EAB18AE84E690E0A0E0B0E089AF9AAF54
:10123000ABAFBCAF21968CAF9DAFAEAFBFAF219728
:1012400021E634E023963FAF2EAF239780932D0104
:1012500090932E01A0932F01B093300180932E0222
:1012600090932F02A0933002B09331020E94DA03D0
:10127000FFCFEE0FFF1F0590F491E02D0994FC01C4
:1012800088279927E89421912032E9F3293010F03A
:101290002E30C8F32B3241F02D3239F4689404C05B
:1012A0000E946C09820F911D219120532A30C0F3B6
:1012B0001EF4909581959F4F0895FB01DC014150EC
:1012C000504048F001900D920020C9F701C01D92D6
:1012D00041505040E0F708957AE0979F902D879F06
:1012E000802D910D112408950F931F93CF93DF93B9
:1012F000CDB7DEB72E970FB6F894DEBF0FBECDBFC9
:101300000D891E8986E08C831A8309838FEF9FE7FE
:101310009E838D83AE01475E5F4F6F89788DCE01CE
:1013200001960E94A309EF81F885E00FF11F10825A
:101330002E960FB6F894DEBF0FBECDBFDF91CF91D2
:101340001F910F9108952F923F924F925F926F924B
:101350007F928F929F92AF92BF92CF92DF92EF9245
:10136000FF920F931F93CF93DF93CDB7DEB72C97E8
:101370000FB6F894DEBF0FBECDBF7C016B018A01B2
:10138000FC0117821682838181FFBDC1CE010196C7
:101390004C01F7019381F60193FD859193FF8191B3
:1013A0006F01882309F4ABC1853239F493FD85912F
:1013B00093FF81916F01853229F4B70190E00E947B
:1013C000B40BE7CF512C312C20E02032A0F48B322B
:1013D00069F030F4803259F0833269F420612CC016
:1013E0008D3239F0803339F4216026C022602460C8
:1013F00023C0286021C027FD27C030ED380F3A30C8
:1014000078F426FF06C0FAE05F9E300D1124532EBB
:1014100013C08AE0389E300D1124332E20620CC098
:101420008E3221F426FD6BC1206406C08C3611F487
:10143000206802C0883641F4F60193FD859193FF40
:1014400081916F018111C1CF982F9F7D9554933069
:1014500028F40C5F1F4FFFE3F9830DC0833631F092
:10146000833771F0833509F05BC022C0F8018081B9
:1014700089830E5F1F4F44244394512C540115C09F
:101480003801F2E06F0E711CF801A080B18026FFD8
:1014900003C0652D70E002C06FEF7FEFC5012C87A0
:1014A0000E94A90B2C0183012C852F77222E17C0B7
:1014B0003801F2E06F0E711CF801A080B18026FFA8
:1014C00003C0652D70E002C06FEF7FEFC5012C8770
:1014D0000E949E0B2C012C852068222E830123FC68
:1014E0001BC0832D90E048165906B0F4B70180E286
:1014F00090E00E94B40B3A94F4CFF50127FC85915B
:1015000027FE81915F01B70190E00E94B40B31107A
:101510003A94F1E04F1A51084114510471F7E5C0B3
:10152000843611F0893639F5F80127FF07C060814C
:101530007181828193810C5F1F4F08C0608171812E
:10154000882777FD8095982F0E5F1F4F2F76B22E3C
:1015500097FF09C090958095709561957F4F8F4F4B
:101560009F4F2068B22E2AE030E0A4010E94E60BD3
:10157000A82EA81844C0853729F42F7EB22E2AE061
:1015800030E025C0F22FF97FBF2E8F36C1F018F45E
:10159000883579F0B4C0803719F0883721F0AFC0B2
:1015A0002F2F2061B22EB4FE0DC08B2D8460B82E7B
:1015B00009C024FF0AC09F2F9660B92E06C028E0FC
:1015C00030E005C020E130E002C020E132E0F80167
:1015D000B7FE07C060817181828193810C5F1F4FCC
:1015E00006C06081718180E090E00E5F1F4FA40112
:1015F0000E94E60BA82EA818FB2DFF77BF2EB6FE83
:101600000BC02B2D2E7FA51450F4B4FE0AC0B2FCE3
:1016100008C02B2D2E7E05C07A2C2B2D03C07A2CD2
:1016200001C0752C24FF0DC0FE01EA0DF11D808163
:10163000803311F4297E09C022FF06C0739473948D
:1016400004C0822F867809F0739423FD13C020FF15
:1016500006C05A2C731418F4530C5718732C7314B7
:1016600068F4B70180E290E02C870E94B40B739479
:101670002C85F5CF731410F4371801C0312C24FFDA
:1016800012C0B70180E390E02C870E94B40B2C8538
:1016900022FF17C021FF03C088E590E002C088E761
:1016A00090E0B7010CC0822F867859F021FD02C06E
:1016B00080E201C08BE227FD8DE2B70190E00E943D
:1016C000B40BA51438F4B70180E390E00E94B40B8A
:1016D0005A94F7CFAA94F401EA0DF11D8081B70165
:1016E00090E00E94B40BA110F5CF332009F451CE45
:1016F000B70180E290E00E94B40B3A94F6CFF70174
:101700008681978102C08FEF9FEF2C960FB6F894D9
:10171000DEBF0FBECDBFDF91CF911F910F91FF9024
:10172000EF90DF90CF90BF90AF909F908F907F9081
:101730006F905F904F903F902F900895FC0105901F
:10174000615070400110D8F7809590958E0F9F1FC3
:101750000895FC016150704001900110D8F7809508
:1017600090958E0F9F1F08950F931F93CF93DF9334
:10177000182F092FEB018B8181FD03C08FEF9FEFA5
:1017800020C082FF10C04E815F812C813D814217B5
:1017900053077CF4E881F9819F012F5F3F4F398324
:1017A0002883108306C0E885F985812F0995892B48
:1017B00029F72E813F812F5F3F4F3F832E83812F5B
:1017C000902FDF91CF911F910F910895FA01AA27D1
:1017D000283051F1203181F1E8946F936E7F6E5F74
:1017E0007F4F8F4F9F4FAF4FB1E03ED0B4E03CD022
:1017F000670F781F891F9A1FA11D680F791F8A1F05
:10180000911DA11D6A0F711D811D911DA11D20D06B
:1018100009F468943F912AE0269F11243019305D25
:101820003193DEF6CF010895462F4770405D419316
:10183000B3E00FD0C9F7F6CF462F4F70405D4A3363
:1018400018F0495D31FD4052419302D0A9F7EACF2B
:10185000B4E0A6959795879577956795BA95C9F75A
:1018600000976105710508959B01AC010A2E06944D
:101870005795479537952795BA95C9F7620F731F06
:0C188000841F951FA01D0895F894FFCF51
:10188C000100010030303030003030303000C90100
:10189C00D601DE01EB01FE0130303A30303A303007
:1018AC000A010030303A303000160005000100000B
:1018BC000025640030303A30303A3030002D43751A
:1018CC007272656E742054696D65202D002D2D206B
:1018DC0053746F707761746368202D2D00596F7588
:1018EC002068617665200063616C6F726965732096
:1018FC006C656674210043616C6F72696520696E5A
:10190C0074616B653A20003030303000454E5445E0
:10191C00522054494D453A20002057454C434F4DD9
:10192C004520544F00464954574154434800454EB6
:10193C00544552204D415820202020202020434146
:10194C004C4F524945533A2000202020202D204D49
:10195C00454E55202D0041292054696D65004229C2
:10196C002053746F7077617463680043292043615E
:10197C006C6F72696520547261636B6572004429E7
:0E198C002041646A75737420636C6F636B0096
:040000050080010076
:00000001FF
